:100000000C946C000C9489000C9489000C94890069
:100010000C9489000C9489000C9489000C9489003C
:100020000C9489000C942F0C0C9489000C9489007A
:100030000C9489000C9489000C94A2130C948900F0
:100040000C9489000C9489000C9489000C9489000C
:100050000C9489000C94F80B0C9489000C94890082
:100060000C9489000C948900DD09E709EC09EF097B
:10007000F209F509F809FB09FE09010A040A070A51
:100080000A0A0D0A100A130A160A210A0000005E65
:10009000506E7950503F71713F540071383E393F76
:1000A0003F393F06393F5B393F4F393F66393F6D36
:1000B000733F3F733F06733F5B733F4F733F6673FE
:1000C0003F6D733F7D3938506E796D545C003F064B
:1000D0005B4F666D7D077F6F11241FBECFEFD8E0A9
:1000E000DEBFCDBF11E0A0E0B1E0EAE2FBE202C07A
:1000F00005900D92A434B107D9F712E0A4E4B1E061
:1001000001C01D92A732B107E1F70E948B000C9449
:1001100093150C94000014BE88E10FB6F8948093F8
:100120006000109260000FBE20E881E090E00FB602
:10013000F89420936100809361000FBE83B7817FA4
:10014000866083BF8CE384B98FE087B98FEF8AB96B
:1001500020BF8EEA8093640078940E94C20180E2FE
:100160008093B6001092B2001092B3001092B400C7
:100170001092B00086E08093B1008091B60090E0CC
:100180008F719070892BC9F781E08093700060E0D7
:1001900071E041E00E9444030E9469100E948801BE
:1001A000809144018823F1F487EC0E94760B8856F5
:1001B0009140C0F0809164008F7D8093640083E063
:1001C00085BD82E080936E0086E091E00E949B0BEB
:1001D0000E94410B0E94DA0E83B7817F83BF81E0CA
:1001E000809344018091CA019091CB01A091CC01F0
:1001F000B091CD010296A11DB11D8093CA019093CB
:10020000CB01A093CC01B093CD0108950F931F9320
:100210008C01FC016081718180E090E028EE33E088
:1002200040E050E00E94E213EAE0969587957795CA
:100230006795EA95D1F77093170260931602F8015B
:10024000828193819C0153E0220F331F5A95E1F77D
:10025000880F991F280F391F2854344F30931502E7
:100260002093140228593A43D8F40E94CC0E0E94DD
:10027000BB070E94710B15BC809164008062809363
:10028000640088B1807F88B98BB18F708BB985B1DC
:10029000877C85B983B7817F866083BF10924401D4
:1002A0001F910F9108958091FE079091FF078A5C3E
:1002B000954311F0F894FFCF0895E0E0F8E08081D5
:1002C0008A3529F4319689E0E030F807C1F720E05B
:1002D00039E02E1B3F0BC9010895F89420911202BA
:1002E000309113027894C9010895AC01F8942091DB
:1002F0001202309113027894F89480911202909136
:1003000013027894821B930B84179507A8F3089522
:10031000F8948FEF98E09EBF8DBF789480E6F82E1A
:1003200000E49EB38AB5892B89F0F8946EB31EBAA7
:100330001AB51ABC7894662319F080E00E94B403C1
:10034000112321F088E0612F0E94B4030E94D9029A
:10035000882349F08091FE079091FF078A5C9543BE
:1003600001F3F894FFCFF8949EB38AB5892B41F43A
:1003700003B602FE02C0F5BE05BF78948895D1CFC2
:100380007894CFCF8DB79EB7E0E0F8E02AE501C0C2
:1003900021938E179F07E0F78AEC95E39093FF0770
:1003A0008093FE078EEF97E0909343018093420184
:1003B0000E94610480E064E071E041E00E94440337
:1003C00083B7816083BF0895EF92FF920F931F93CD
:1003D000CF93DF93E0901802F894009112021091ED
:1003E0001302789410930F0200930E02FE2CE4FE89
:1003F00006C08DE192E0B80141E00E94E406F6FEFD
:1004000006C081E292E0B80141E00E9453062091CB
:10041000450130914601C801821B930B813D910536
:1004200078F1C0911002D0911102409147012196BC
:100430002F523F4F4E5F433018F043502150304011
:10044000C801821B930B813D910588F7D09311025F
:10045000C093100230934601209345014093470119
:10046000F5FE06C08FE192E0BE0140E00E94E40686
:10047000E7FE06C08BE192E0BE0140E00E94530619
:10048000DF91CF911F910F91FF90EF900895FC01A4
:100490008FEF9FEF91838083738362830895CF935F
:1004A000DF93EC01009761F18A819B81892B41F1F7
:1004B000633030F5888199818F5F9F4F09F5262F32
:1004C00030E0F901EE0FFF1FE25BFE4FA081B1812A
:1004D0008D919C91119799838883CD93DC93D183DF
:1004E000C08381E090E0062E02C0880F991F0A9415
:1004F000E2F720911802282B2093180281E001C016
:1005000080E0DF91CF910895CF93DF939C01009716
:1005100009F445C0FC0180819181FFEF8F3F9F0767
:10052000F1F1A8E4B1E040E0ED01ED91FC9111970B
:1005300007C0E217F30739F0EF010190F081E02DD9
:100540003097B9F730C0009741F4E42FF0E0EE0F98
:10055000FF1FE25BFE4FD183C083998388838FEFB7
:100560009FEFF90191838083242F30E0F901EE0F92
:10057000FF1FE85BFE4F80819181892B71F481E040
:1005800090E0042E02C0880F991F0A94E2F780952C
:100590002091180228232093180281E001C080E0F6
:1005A000DF91CF9108954F5F1296433009F0BCCF91
:1005B000F6CF2091180222FF15C0A0914C01B091F6
:1005C0004D018D919C91119790934D0180934C0119
:1005D000892BC9F58CE491E09093530180935201EB
:1005E0002B7F2FC021FF15C0A0914A01B0914B0174
:1005F0008D919C91119790934B0180934A01892B87
:1006000011F58AE491E090935101809350012D7F80
:1006100018C020FD02C080E00895A0914801B0916B
:1006200049018D919C9111979093490180934801C4
:10063000892B49F488E491E090934F0180934E0117
:100640002E7F209318028FEF9FEF11969C938E932D
:1006500081E0AE36B80780F081E0AE39B80760F4CB
:1006600014966D917C9115971296ED91FC911397CC
:10067000CD01099581E008951296ED91FC911397B3
:10068000CD01099581E00895582FFB018C30A8F524
:100690006115710591F182819381892B71F1442358
:1006A00061F1433050F5252F30E0D901AA0FBB1F6F
:1006B000AC5ABE4F8D919C911197892BF1F480819A
:1006C00091818F5F9F4FC9F4ED93FC93423099F471
:1006D000569556955695E52FF0E0E459FE4F277054
:1006E000307081E090E002C0880F991F2A95E2F7F0
:1006F0002081282B208381E0089580E00895FF92D7
:100700000F931F93CF93DF93F82E8BE08F1528F173
:100710000F2D10E0E801CC0FDD1FCC5ADE4F888191
:1007200099810097D1F00E94840219821882F69470
:10073000F694F694EF2DF0E0E459FE4F0770107038
:1007400081E090E002C0880F991F0A95E2F780953A
:1007500020818223808381E001C080E0DF91CF91FE
:100760001F910F91FF900895FF920F931F93F82E02
:10077000062F51C0202F30E0C9018F709070892B57
:10078000A9F0C90183709070892B41F000FD03C06E
:10079000E1E012E01FC0E0E011E01CC002FD03C078
:1007A000E3E018E017C0E2E014E014C0C901807370
:1007B0009070892B41F004FD03C0E5E010E20AC00F
:1007C000E4E010E107C006FD03C0E7E010E802C066
:1007D000E6E010E48E2F8F0D8C30D8F4E82FF0E097
:1007E000EE0FFF1FEC5AFE4F20813181211531059C
:1007F00081F0869586958695E82FF0E0E459FE4FC6
:100800008081812311F461E001C062E0C9010E948E
:100810004F0210950123002309F0ACCF1F910F91D7
:10082000FF9008959C01009791F0E0919E01F09156
:100830009F01309761F08081918190939F01809317
:100840009E0133832283758364839F0102C020E06D
:1008500030E0C9010895FF920F931F93CF93DF9368
:10086000EC0181E0CE36D80728F1E1E0CE39DE0791
:1008700008F5CE010E94840204E511E0FF24F8018E
:10088000808191818C179D0719F48F2D0E947F0321
:10089000F3940E5F1F4FFCE0FF1689F780919E01D5
:1008A00090919F0199838883D0939F01C0939E016B
:1008B00081E001C080E0DF91CF911F910F91FF9007
:1008C000089588E491E090934F0180934E01029641
:1008D000909351018093500102969093530180931D
:1008E0005201EEE6F1E021E030E0C901880F991FE6
:1008F000820F931F880F991F82599E4F9183808387
:100900002F5F3F4F36962830310579F78EE691E01C
:1009100090939F0180939E010895FC018FEF9FEFBC
:1009200091838083738362830895FC018FEF9FEF2F
:100930009183808373836283958384835187408707
:1009400008951F93CF93DF93DC01009711F410E01B
:1009500061C0E0912102F0912202309719F1C1E2C9
:10096000D2E007C03097F1F0EF0124960480F581C2
:10097000E02DEA17FB07B1F714968D919C9115971E
:10098000998388838FEF9FEF15969C938E9314978E
:100990008091210290912202892B71F58091180299
:1009A0008F7B28C0E0911B02F0911C02309731F13F
:1009B000CBE1D2E007C0309709F1EF012496048023
:1009C000F581E02DEA17FB07B1F714968D919C9104
:1009D0001597998388838FEF9FEF15969C938E933D
:1009E000149780911B0290911C02892B29F480910D
:1009F00018028F778093180211E001C010E08D91EA
:100A00009C9111978F5F9F4F29F0CD010E94840226
:100A1000811111E0812FDF91CF911F910895FF92F5
:100A20000F931F93CF93DF93EC01F62E8A0100976B
:100A300009F46CC08A819B81892B09F467C023EC7F
:100A40004135520708F062C0888599858155934CDD
:100A500008F05CC08C819D818F5F9F4F29F4888155
:100A600099818F5F9F4F79F0CE010E94A1048C8104
:100A70009D818F5F9F4F09F049C0888199818F5F69
:100A80009F4F09F043C0F0FE0BC02091100230913F
:100A90001102E0911B02F0911C02ABE1B2E00AC02E
:100AA00020910E0230910F02E0912102F09122027A
:100AB000A1E2B2E0C901800F911F9F838E8330971E
:100AC000E9F49091180282E0A132B80711F080E8B1
:100AD00001C080E4892B8093180210C08681978121
:100AE000821B930B43EC8135940718F40817190700
:100AF00038F0DF0114960480F581E02D309771F70E
:100B0000FD83EC83CD93DC9381E001C080E0DF9135
:100B1000CF911F910F91FF900895CF93DF93EC0138
:100B2000009709F451C0888199812FEF8F3F920778
:100B300009F44AC0E0911D02F0911E023097E1F0E5
:100B4000ADE1B2E006C03097B9F0DF010190F0816D
:100B5000E02DEC17FD07B9F78D939C938FEF9FEF76
:100B60009183808380911D0290911E02892B71F5E3
:100B7000809118028F7E21C0E0911F02F091200227
:100B80003097F1F0AFE1B2E006C03097C9F0DF0175
:100B90000190F081E02DEC17FD07B9F78D939C9340
:100BA0008FEF9FEF9183808380911F0290912002AD
:100BB000892B61F4809118028F7D8093180206C002
:100BC000CE010E94840203C080E001C081E0DF9179
:100BD000CF910895FF920F931F93CF93DF93EC0172
:100BE000F62E8A01009709F457C08A819B81892BD0
:100BF00009F452C023EC4135520708F04DC08881FA
:100C000099818F5F9F4F31F0CE010E948D0588231F
:100C100009F442C0F0FE0BC0209110023091110285
:100C2000E0911F02F0912002AFE1B2E00AC02091F2
:100C30000E0230910F02E0911D02F0911E02ADE113
:100C4000B2E0C901800F911F9D838C833097E1F43E
:100C50009091180282E0AD31B80711F080E201C036
:100C600080E1892B809318020FC084819581821BBB
:100C7000930B43EC8135940718F40817190730F0EB
:100C8000DF010190F081E02D309779F7F983E88357
:100C9000CD93DC9381E001C080E0DF91CF911F9183
:100CA0000F91FF900895FF920F931F93CF93DF93BF
:100CB000EC018B01F42EA881B981109709F47EC054
:100CC0002D913C9111976FEF2F3F360709F076C0B9
:100CD00016964D915C911797401B510BCA010197D5
:100CE0008055934C08F46AC014968D919C91159789
:100CF0009983888315963C932E93149788819981C4
:100D0000892B61F490911802F2E0C132DF0711F0F3
:100D10008FE701C08FEB89238093180218962D91DD
:100D20003C9119972115310509F443C016968D9110
:100D30009C911797820F931F17969C938E931697EB
:100D4000CA01820F931F23EC8135920730F017966A
:100D50001C930E93169780E090E0E881F98130971C
:100D600061F43091180262E0C132D60711F020E838
:100D700001C020E4232B20931802AE0111C026816C
:100D80003781201B310B63EC2135360718F48217AD
:100D9000930740F0AF014C5F5F4F0480F581E02D79
:100DA000309769F71596FC93EE931497FA01B18387
:100DB000A083CD016F2D0E944F027DCFDF91CF9197
:100DC0001F910F91FF900895DF92EF92FF920F9382
:100DD0001F93CF93DF93EC018B01D42EEE24EA9482
:100DE000FE2CE881F981309709F184819581019782
:100DF000801B910B8055934CC8F080819181998321
:100E00008883F182E082892B61F49091180282E05C
:100E1000CD31D80711F08FED01C08FEE892380937B
:100E20001802CF016D2D0E944F02DBCFDF91CF91D1
:100E30001F910F91FF90EF90DF900895E0E8F0E0B0
:100E40009081906290838093A3010895FC01849126
:100E500080930B023196849180930C023196E49139
:100E6000E0930D0208950F931F93062F9C0183E0DA
:100E7000283E380710F027EE33E0C90164E670E041
:100E80000E940114462FC9016AE070E00E9401141B
:100E9000CB016AE070E00E940114182F442311F482
:100EA000013029F4E42FF0E0E253FF4F4491112385
:100EB00021F4023011F0442329F0E12FF0E0E25355
:100EC000FF4F1491C9016AE070E00E940114E82FFD
:100ED000F0E0E253FF4F8491013011F4406807C005
:100EE000023011F4106803C0033009F480684093A5
:100EF0000B0210930C0280930D021F910F91089525
:100F0000683E23E0720720E0820720E0920718F491
:100F1000CB0160E02DC0603127E2720720E082073C
:100F200020E0920750F42AE030E040E050E00E94D8
:100F30001514DA01C90161E01BC0603A26E87207A6
:100F400021E0820720E0920750F424E630E040E000
:100F500050E00E941514DA01C90162E009C028EED0
:100F600033E040E050E00E941514DA01C90163E06B
:100F70000E943307089588E091E00E94A104109236
:100F8000A0011092A101E0E8F0E080818F7D8083D4
:100F9000E1E8F0E080818E7F8083E4E6F0E080810C
:100FA000886080831092A3015898509A10920B0287
:100FB00010920C0210920D0288E10FB6F894809303
:100FC0006000109260000FBE08950F931F93A895C4
:100FD0008091800085FF0CC08091A3018150809397
:100FE000A301882329F4809180008F7D8093800065
:100FF0008091A001489927C0882351F491E09093F3
:10100000A001809180008062809380009093A30172
:101010008091A001813009F02FC38091A1018F5FE1
:101020008093A10181508C3009F026C382E0809327
:10103000A0018091800080628093800085E0809391
:10104000A30112E00BC0882309F416C31092A0017B
:101050001092A101813009F00FC311E080911002BC
:10106000909111029093B1018093B0018091A501FC
:101070008823B1F080911002909111022091B0016B
:101080003091B101821B930BCD9750F01092A501C6
:101090008091800080628093800081E08093A30132
:1010A0008091A501882309F096C00E94450D082F64
:1010B0008330E9F0843018F4823050F00CC0853071
:1010C00009F465C0853008F1863009F067C062C058
:1010D0008CE890E061C00E94150E20E831E541E007
:1010E00050E00E941514DA01C90160E00BC00E94B3
:1010F000600E26E030E040E050E00E941514DA0176
:10110000C90162E00E94330749C010920B0210929D
:101110000C0210920D028091A2018430F1F0853012
:1011200048F4813001F1813098F0823099F08330B9
:1011300021F512C08730D1F0883028F4853081F055
:101140008630D9F40FC0883099F08930B1F412C0DC
:1011500081E011C081E001C082E080930D020DC0EA
:1011600088E0FBCF88E080930C0207C088E003C0D2
:1011700080E101C080E280930B028091A20189305E
:1011800010F080E001C08F5F8093A20107C08FE85C
:1011900090E002C082E990E00E942607113099F4A5
:1011A000043011F0063019F40E94480D13C090E08D
:1011B0008091A401882309F491E09093A401892FE0
:1011C0000E94B90D07C0123029F481E08093A50177
:1011D0001092A60110E08091A501813009F03EC176
:1011E000113051F48091A601813110F080E001C0EE
:1011F0008F5F8093A601D1C0123009F0CEC08091DC
:10120000A6018A3009F45EC08B3080F4883040F447
:10121000823070F58823E9F0813009F0BEC025C026
:10122000883041F1893009F0B8C033C08E3009F4FC
:1012300097C08F3038F48C3009F46EC08D3008F0D0
:101240007AC055C08F3009F4A0C0823108F0A5C023
:10125000A2C00E94450D813021F00E94EF0E81E076
:1012600001C080E00E94A71196C00E94510D93C05A
:1012700084E08EC01093A5010E94F10D2CE330E0B4
:1012800040E050E00E9415143093AD012093AC0172
:101290005AC01093A5010E94E80D7093AD016093B0
:1012A000AC011092A9011092A80184E893E09093F8
:1012B000AB018093AA018AE090E09093AF01809304
:1012C000AE016BC01093A5010E94D60D2CE330E057
:1012D00040E050E00E9415143093AD012093AC0122
:1012E0001092A9011092A8018EED93E0E0CF109327
:1012F000A5010E94DF0D20E13EE040E050E00E94A9
:1013000015143093AD012093AC011092A9011092F5
:10131000A80180EF90E032C01093A5010E94CD0D8E
:101320002CE330E040E050E00E9415143093AD0112
:101330002093AC011DC01093A5010E94C40D7093B1
:10134000AD016093AC011092A9011092A8018CE349
:1013500090E09093AB018093AA0181E090E0ADCF43
:101360001093A5010E94FA0D7093AD016093AC013A
:101370001092A9011092A80188E691E09093AB0128
:101380008093AA0185E090E098CF1092A70183E0B6
:101390008093A50102C01092A5018091A601E82FBB
:1013A000F0E0E231F10508F058C0EC5CFF4FEE0FC1
:1013B000FF1F0590F491E02D09940E94450D8130A6
:1013C00019F488E990E005C085E990E002C08BE956
:1013D00090E00E94260741C08EE990E0FACF81EAB2
:1013E00090E0F7CF84EA90E0F4CF87EA90E0F1CF85
:1013F0008AEA90E0EECF8DEA90E0EBCF80EB90E0D0
:10140000E8CF83EB90E0E5CF86EB90E0E2CF89EB8D
:1014100090E0DFCF8CEB90E0DCCF8FEB90E0D9CF8A
:1014200082EC90E0D6CF85EC90E0D3CF809116028D
:10143000909117026AE070E00E940114CB0161E014
:101440000AC0809114029091150264E670E00E9437
:101450000114CB0162E00E94330710E08091A501E6
:10146000823009F09CC01130F9F48091AE01909166
:10147000AF012091AC013091AD01820F931F909389
:10148000AD018093AC012091AA013091AB012817E6
:10149000390708F07CC08091A8019091A901909330
:1014A000AD018093AC0173C0123009F070C080911F
:1014B000A6018B30D1F18C3040F48930F1F08A30C4
:1014C00028F5883009F060C009C08D3009F44BC0A0
:1014D0008D30D0F18E3009F057C04EC06091AC0114
:1014E0007091AD0180E090E02CE330E040E050E00E
:1014F0000E94E2130E947C0F47C06091AC01709182
:10150000AD0180E090E00E94A40F3EC06091AC016C
:101510007091AD0180E090E02CE330E040E050E0DD
:101520000E94E2130E94F40F2FC06091AC017091F1
:10153000AD0180E090E020E13EE040E050E00E941C
:10154000E2130E94CC0F20C06091AC017091AD01FC
:1015500080E090E02CE330E040E050E00E94E213B5
:101560000E941C1011C06091AC017091AD0180E02F
:1015700090E00E94441008C06091AC017091AD01F0
:1015800080E090E00E94540F81E08093A50180915B
:10159000AC019091AD0160E00E94330710E08091B2
:1015A000A5018430E1F5113019F41093A50104C0B0
:1015B000123011F41092A5018091A6018430E1F05F
:1015C000853028F4823051F0833021F50AC086300E
:1015D000C9F08630A0F08730E9F417C00E94150EDC
:1015E00002C00E94380E20E13EE040E050E00E9440
:1015F0001514CA01B9010BC00E94810EF4CF0E94DC
:10160000A40EF1CF0E94030E02C00E940C0E0E9495
:10161000800704C08CE890E00E94260710E08091CB
:10162000A501833059F5113049F490E08091A7016C
:10163000882309F491E09093A70112C0123081F43D
:101640008091A701882349F08091A6018F3011F481
:101650000E94680D1092A50103C081E08093A5014E
:101660008091A701882319F48BEC90E002C088ECEC
:1016700090E00E94260702C010E0F8CC1F910F9165
:1016800008952CE088E190E00FB6F894A895809337
:1016900060000FBE209360005098589AE4E6F0E096
:1016A0008081877F808381EE94E09093890080938E
:1016B000880081E792E090938B0080938A0083E01A
:1016C0008093800089E18093810088E091E060E070
:1016D00040E050E00E940F051092A5011092A40175
:1016E000089510927A0010927C00089580937C00F7
:1016F00084E880937A0080917A00806480937A00F5
:1017000080917A0084FFFCCF80917A00806480937E
:101710007A0080917A0084FFFCCF2091780030918C
:10172000790080917A0080937A0010927A0010926A
:101730007C00C90108950F931F938C0182E064E13E
:1017400071E041E00E9444031093B8010093B70197
:1017500086EC80937C008EE880937A001092B6012C
:1017600086EC0E94250C1F910F9108958091B6017F
:10177000EBEBF1E040E050E0A0E0B0E06FEF7FEF96
:1017800020813181420F531FA217B30708F4D901FA
:101790002617370708F4B901329691E0E93CF907BA
:1017A00079F7E82FF0E0EE0FFF1FEE54FE4F4A1BD3
:1017B0005B0B461B570B518340838F5F8093B601B1
:1017C000823069F41092B601E091B701F091B8014E
:1017D00082EB91E0099580917A0087FF08C0E09143
:1017E000B601F0E0EE5EFE4F80810E94250C089568
:1017F0008F938FB78F939F93EF93FF938091C9013E
:1018000090E0883078F4E9EBF1E0E80FF91FE80F99
:10181000F91F83958093C901809178009091790098
:10182000819391938091C901873040F031F4809188
:101830007A008F7C80937A0001C0F29AFF91EF9139
:101840009F918F918FBF8F9118951092C9018093AE
:101850007C0080917A00806680937A000895F19AE6
:101860001895EF92FF920F931F936091ED01862FD1
:101870008350823008F05CC0E090CA01F090CB0148
:101880000091CC011091CD018091F2019091F30172
:10189000A091F401B091F501A8019701281B390B23
:1018A0004A0B5B0B8091DD019091DE01A091DF017D
:1018B000B091E001820F931FA41FB51F8093DD013B
:1018C0009093DE01A093DF01B093E0018091E901E4
:1018D0009091EA01A091EB01B091EC01820F931F6E
:1018E000A41FB51F8093E9019093EA01A093EB0137
:1018F000B093EC016330A1F48091E1019091E20199
:10190000A091E301B091E401820F931FA41FB51FC2
:101910008093E1019093E201A093E301B093E4018D
:10192000E092F201F092F3010093F4011093F501BB
:101930001F910F91FF90EF9008950E94310C599ADA
:101940005A988091ED018350823098F08091D101B6
:101950009091D201A091D301B091D4010196A11D23
:10196000B11D8093D1019093D201A093D301B09384
:10197000D4018091CA019091CB01A091CC01B0918A
:10198000CD018093F2019093F301A093F401B09301
:10199000F5018093060290930702A0930802B0938A
:1019A000090283E08093ED010895EF92FF920F9377
:1019B0001F937B018C010E94310C599A5A9A2091F5
:1019C000ED01822F8350823098F08091D101909167
:1019D000D201A091D301B091D4010196A11DB11DF6
:1019E0008093D1019093D201A093D301B093D401FD
:1019F000243099F08091D5019091D601A091D70122
:101A0000B091D8010196A11DB11D8093D50190938D
:101A1000D601A093D701B093D8011092E1011092A2
:101A2000E2011092E3011092E4018091CA019091C9
:101A3000CB01A091CC01B091CD018093FA0190939C
:101A4000FB01A093FC01B093FD018093F201909300
:101A5000F301A093F401B093F501E092EE01F0924E
:101A6000EF010093F0011093F10184E08093ED0108
:101A70001F910F91FF90EF9008950E94310C59989B
:101A80005A9882E08093ED0108958091ED010895C8
:101A90008091ED01843011F0863011F40E943D0DEB
:101AA00008958091ED018250833088F46091260181
:101AB000709127018091280190912901611571058C
:101AC0008105910521F0189902C00E94D50C089556
:101AD000EF92FF920F931F938091CA019091CB01D7
:101AE000A091CC01B091CD012091E5013091E601AA
:101AF0004091E7015091E801280F391F4A1F5B1FF1
:101B0000E090FE01F090FF010091000210910102AF
:101B10002E193F09400B510B2093E5013093E6014C
:101B20004093E7015093E8018093FE019093FF01F9
:101B3000A0930002B09301021092D9011092DA0131
:101B40001092DB011092DC011092DD011092DE0197
:101B50001092DF011092E0011092E1011092E20177
:101B60001092E3011092E4011F910F91FF90EF900A
:101B70000895982F8091ED01882329F0992311F081
:101B80005B9A08955B98089560913A0170913B01CA
:101B900080913C0190913D010895609136017091D2
:101BA0003701809138019091390108956091320197
:101BB00070913301809134019091350108956091C5
:101BC0002E0170912F018091300190913101089583
:101BD00060912A0170912B0180912C0190912D012F
:101BE00008956091260170912701809128019091BC
:101BF00029010895609122017091230180912401AF
:101C00009091250108956091D1017091D201809148
:101C1000D3019091D40108956091D5017091D601BE
:101C20008091D7019091D80108952091CA013091F7
:101C3000CB014091CC015091CD018091D90190917F
:101C4000DA01A091DB01B091DC01280F391F4A1F96
:101C50005B1F8091FE019091FF01A0910002B09165
:101C60000102281B390B4A0B5B0BB901CA0108950D
:101C70002091DD013091DE014091DF015091E001C2
:101C80008091ED0183508230C0F48091CA0190911F
:101C9000CB01A091CC01B091CD01280F391F4A1F73
:101CA0005B1F8091F2019091F301A091F401B0913A
:101CB000F501281B390B4A0B5B0BB901CA010895CA
:101CC0008091ED018350823028F020E030E040E048
:101CD00050E014C02091CA013091CB014091CC0159
:101CE0005091CD018091F2019091F301A091F40106
:101CF000B091F501281B390B4A0B5B0BB901CA01E6
:101D000008952091CA013091CB014091CC015091AE
:101D1000CD018091E5019091E601A091E701B0919C
:101D2000E801280F391F4A1F5B1F8091FE01909127
:101D3000FF01A0910002B0910102281B390B4A0B50
:101D40005B0BB901CA0108952091E9013091EA01C4
:101D50004091EB015091EC018091ED018350823074
:101D6000C0F48091CA019091CB01A091CC01B091B7
:101D7000CD01280F391F4A1F5B1F8091F2019091FE
:101D8000F301A091F401B091F501281B390B4A0B26
:101D90005B0BB901CA0108958091ED01882349F0D8
:101DA0000E943D0D5B9888E191E00E94A104109291
:101DB000ED0108958091ED01882381F488E191E09F
:101DC00060E040E050E00E940F058091CE01882342
:101DD00011F482E001C081E08093ED01089540910B
:101DE000D1015091D2016091D3017091D4018DE164
:101DF00090E00E944A154091D5015091D601609122
:101E0000D7017091D80181E290E00E944A1540917B
:101E1000D9015091DA016091DB017091DC0185E21A
:101E200090E00E944A154091DD015091DE016091E1
:101E3000DF017091E00189E290E00E944A15409133
:101E4000E1015091E2016091E3017091E4018DE2C2
:101E500090E00E944A154091E5015091E6016091A1
:101E6000E7017091E80181E390E00E944A154091FA
:101E7000E9015091EA016091EB017091EC0185E379
:101E800090E00E944A158091CA019091CB01A091E7
:101E9000CC01B091CD018093020290930302A093F4
:101EA0000402B09305020895AB01BC01493681E0FC
:101EB000580780E0680780E0780720F04EE150E0A6
:101EC00060E070E08091220190912301A0912401B3
:101ED000B0912501481759076A077B0761F04093C5
:101EE000220150932301609324017093250189E11D
:101EF00090E00E9464150895AB01BC0141318EE071
:101F0000580780E0680780E0780720F044E853E055
:101F100060E070E08091260190912701A091280156
:101F2000B0912901481759076A077B0761F0409370
:101F3000260150932701609328017093290185E1C0
:101F400090E00E9464150895AB01BC01453883E020
:101F5000580780E0680780E0780720F04CE350E005
:101F600060E070E080912A0190912B01A0912C01FA
:101F7000B0912D01481759076A077B0761F040931C
:101F80002A0150932B0160932C0170932D0181E164
:101F900090E00E9464150895AB01BC0141308FE2CE
:101FA00058078DE0680780E0780720F040E851E5A9
:101FB00061E070E080912E0190912F01A09130019D
:101FC000B0913101481759076A077B0761F04093C8
:101FD0002E0150932F0160933001709331018DE0F9
:101FE00090E00E9464150895AB01BC01493088EE71
:101FF000580780E0680780E0780720F040E25CE165
:1020000060E070E08091320190913301A091340141
:10201000B0913501481759076A077B0761F0409373
:10202000320150933301609334017093350189E09C
:1020300090E00E9464150895AB01BC01413684E52F
:10204000580780E0680780E0780720F044E853E014
:1020500060E070E08091360190913701A0913801E5
:10206000B0913901481759076A077B0761F040931F
:10207000360150933701609338017093390185E040
:1020800090E00E9464150895AB01BC014D335105E9
:102090006105710520F045E050E060E070E080915E
:1020A0003A0190913B01A0913C01B0913D0148174C
:1020B00059076A077B0761F040933A0150933B014F
:1020C00060933C0170933D0181E090E00E946415B3
:1020D00008952F923F924F925F926F927F928F92CC
:1020E0009F92AF92BF92CF92DF92EF92FF920F93A7
:1020F0001F93DF93CF93CDB7DEB728970FB6F89431
:10210000DEBF0FBECDBF80E090E00E943C15809303
:10211000CE01823010F01092CE0181E090E00E945A
:1021200044150E94441085E090E00E9444150E94EE
:102130001C1089E090E00E9444150E94F40F8DE08D
:1021400090E00E9444150E94CC0F81E190E00E9433
:1021500044150E94A40F85E190E00E9444150E945E
:102160007C0F89E190E00E9444150E94540F8DE19C
:1021700090E00E9444157B018C016093D101709323
:10218000D2018093D3019093D40181E290E00E9428
:1021900044156D837E838F8398876093D5017093F8
:1021A000D6018093D7019093D80185E290E00E94F8
:1021B000441569837A838B839C836093D9017093E0
:1021C000DA018093DB019093DC0189E290E00E94C8
:1021D00044151B012C016093DD017093DE01809397
:1021E000DF019093E0018DE290E00E9444153B01F5
:1021F0004C016093E1017093E2018093E3019093BD
:10220000E40181E390E00E9444155B016C0160935E
:10221000E5017093E6018093E7019093E80185E37F
:1022200090E00E9444156093E9017093EA01809365
:10223000EB019093EC012FEFE2162FEFF2062FEF58
:1022400002072FEF120741F41092D1011092D20130
:102250001092D3011092D4012D813E814F81588577
:102260002F5F3F4F4F4F5F4F41F41092D5011092B7
:10227000D6011092D7011092D80129813A814B8161
:102280005C812F5F3F4F4F4F5F4F41F41092D90158
:102290001092DA011092DB011092DC01BFEF2B16D5
:1022A000BFEF3B06BFEF4B06BFEF5B0641F410925A
:1022B000DD011092DE011092DF011092E001EFEFDC
:1022C0006E16EFEF7E06EFEF8E06EFEF9E0641F4FF
:1022D0001092E1011092E2011092E3011092E401E8
:1022E000FFEFAF16FFEFBF06FFEFCF06FFEFDF06F2
:1022F00041F41092E5011092E6011092E70110926C
:10230000E8016F5F7F4F8F4F9F4F41F41092E901BB
:102310001092EA011092EB011092EC0128960FB690
:10232000F894DEBF0FBECDBFCF91DF911F910F910B
:10233000FF90EF90DF90CF90BF90AF909F908F90E5
:102340007F906F905F904F903F902F9008951F93D4
:102350009091CE01882379F09923E9F411E010934C
:10236000CE0180E090E061E00E9456150E943D0D94
:102370001093ED0110C0992371F01092CE0180E00E
:1023800090E060E00E9456158091ED01813019F4D3
:1023900082E08093ED011F9108956F927F928F925A
:1023A0009F92AF92BF92CF92DF92EF92FF920F93E4
:1023B0001F93A090CA01B090CB01C090CC01D090E7
:1023C000CD018091ED01833009F440C0843020F4C8
:1023D000823009F0F6C007C0843009F4B3C08530FC
:1023E00009F0EFC0D7C01899ECC0E0902E01F09032
:1023F0002F010091300110913101E114F104010528
:10240000110509F120912A0130912B0140912C01F5
:1024100050912D012115310541055105A1F0809103
:10242000FA019091FB01A091FC01B091FD013501F1
:102430004601681A790A8A0A9B0A6E147F0480068C
:10244000910608F07CC01999BCC09BC02091360150
:1024500030913701409138015091390121153105F2
:1024600041055105C9F08091F2019091F301A091CD
:10247000F401B091F50186017501E81AF90A0A0B19
:102480001B0B2E153F054007510730F40E943D0DF0
:1024900086E08093ED0195C0199909C0A0920602CB
:1024A000B0920702C0920802D09209028AC08091BD
:1024B000060290910702A0910802B0910902A601BC
:1024C0009501281B390B4A0B5B0B809122019091DF
:1024D0002301A0912401B0912501281739074A074B
:1024E0005B0708F46EC00E94310CE0903201F0905E
:1024F00033010091340110913501E114F10401051B
:10250000110509F441C020912A0130912B0140911D
:102510002C0150912D012115310541055105A1F1E5
:102520008091E1019091E201A091E301B091E40179
:102530008E159F05A007B10738F1189925C0CA016B
:10254000B9013AC08091F2019091F301A091F40198
:10255000B091F501A6019501281B390B4A0B5B0BC5
:102560008091EE019091EF01A091F001B091F10105
:10257000281739074A075B0720F1199905C01899F0
:1025800003C00E949D0C1DC00E943D0D85E00E946D
:102590001E0717C0189915C085E00E941E0760919C
:1025A0002A0170912B0180912C0190912D016115D0
:1025B00071058105910519F00E94D50C02C00E9499
:1025C0003D0D189909C0A092F601B092F701C09292
:1025D000F801D092F90125C08091ED01825083303D
:1025E00000F58091F6019091F701A091F801B0916A
:1025F000F901A6019501281B390B4A0B5B0B809151
:102600003A0190913B01A0913C01B0913D01281706
:1026100039074A075B0728F00E943D0D85E080934B
:10262000ED019091ED01892F85508230C0F49630F4
:1026300021F08091D0018A30B0F48091CF018F5F7A
:102640008093CF018E3079F487E00E941E0780913D
:10265000D0018F5F8093D0011092CF0104C01092FF
:10266000CF011092D0018091FE019091FF01A091C5
:102670000002B0910102A816B906CA06DB06F1F104
:10268000E090CA01F090CB010091CC011091CD01F6
:10269000A8019701281B390B4A0B5B0B8091D901CC
:1026A0009091DA01A091DB01B091DC01820F931FC0
:1026B000A41FB51F8093D9019093DA01A093DB0189
:1026C000B093DC018091E5019091E601A091E701D2
:1026D000B091E801820F931FA41FB51F8093E501FD
:1026E0009093E601A093E701B093E801E092FE0128
:1026F000F092FF0100930002109301028091020208
:1027000090910302A0910402B0910502A81AB90A9F
:10271000CA0ADB0A00E8A01601E5B00601E0C0061F
:1027200000E0D00610F00E94EF0E1F910F91FF9075
:10273000EF90DF90CF90BF90AF909F908F907F9061
:102740006F9008958F938FB78F939F93EF93FF931D
:1027500085B1877C85B980910A0290E0EBE0F2E0D8
:10276000E80FF91F982F8395833008F080E080935D
:102770000A02E081FE2FEF70F07F88B1807F8E2B00
:1027800088B98BB18F708F2B8BB9913021F092303B
:1027900021F02B9A0DC02C9A0BC02D9A8091120219
:1027A0009091130201968093120290931302F09A73
:1027B00087B58C5987BDFF91EF919F918F918FBF06
:1027C0008F911895629FD001739FF001829FE00D59
:1027D000F11D649FE00DF11D929FF00D839FF00DA0
:1027E000749FF00D659FF00D9927729FB00DE11D4C
:1027F000F91F639FB00DE11DF91FBD01CF01112429
:102800000895AA1BBB1B51E107C0AA1FBB1FA61737
:10281000B70710F0A61BB70B881F991F5A95A9F789
:1028200080959095BC01CD010895A1E21A2EAA1BB6
:10283000BB1BFD010DC0AA1FBB1FEE1FFF1FA21770
:10284000B307E407F50720F0A21BB30BE40BF50B6D
:10285000661F771F881F991F1A9469F760957095F6
:10286000809590959B01AC01BD01CF010895CF9358
:10287000DF93BC018230910510F462E070E0A0911A
:102880002502B0912602ED01E0E0F0E040E050E0EA
:1028900021C0888199818617970769F48A819B8175
:1028A000309719F09383828304C09093260280931B
:1028B0002502FE0134C06817790738F44115510527
:1028C00019F08417950708F4AC01FE018A819B81F9
:1028D0009C01E9012097E9F641155105A9F1CA01CA
:1028E000861B970B049708F4BA01E0E0F0E02AC0D9
:1028F0008D919C91119784179507F9F464177507CA
:1029000081F412968D919C911397309719F09383CF
:10291000828304C09093260280932502FD013296A3
:102920004FC0CA01861B970BFD01E80FF91F619389
:10293000719302978D939C9343C0FD018281938193
:102940009C01D9011097A1F6809123029091240255
:10295000892B41F480914001909141019093240290
:10296000809323024091420150914301411551054A
:1029700041F44DB75EB780913E0190913F01481BF5
:10298000590B209123023091240224173507B0F40B
:10299000CA01821B930B8617970780F0AB014E5F2D
:1029A0005F4F8417950750F0420F531F5093240236
:1029B00040932302F9016193719302C0E0E0F0E0DB
:1029C000CF01DF91CF910895CF93DF93009709F462
:1029D00050C0EC0122971B821A82A0912502B0916F
:1029E0002602109709F140E050E0AC17BD0708F14E
:1029F000BB83AA83FE0121913191E20FF31FAE1731
:102A0000BF0779F48D919C911197280F391F2E5F84
:102A10003F4F3983288312968D919C9113979B8306
:102A20008A834115510571F4D0932602C093250283
:102A300020C012968D919C911397AD01009711F0D3
:102A4000DC01D3CFFA01D383C28321913191E20F0C
:102A5000F31FCE17DF0769F488819981280F391F8A
:102A60002E5F3F4FFA01318320838A819B819383BC
:102A70008283DF91CF910895F999FECF92BD81BDF8
:102A8000F89A992780B50895A6E1B0E044E050E0B7
:102A90000C9473150396272F0E9482150E948115AE
:102AA000252F0E948215242F0C948215262FF99928
:102AB000FECF1FBA92BD81BD20BD0FB6F894FA9A21
:102AC000F99A0FBE01960895242F0E945715252FBD
:102AD0000E9457150C946C150E945615272F0C94C4
:102AE0005715DC01CB01FC01F999FECF06C0F2BD00
:102AF000E1BDF89A319600B40D9241505040B8F7BC
:102B00000895262FF999FECF92BD81BDF89A0197BD
:102B100000B4021639F01FBA20BD0FB6F894FA9A25
:0A2B2000F99A0FBE0895F894FFCF54
:102B2A00FFFFD000FFFFE401FFFFE507FFFF000002
:102B3A000A00C6C7FFFFB60BFFFFCD11FFFF00005B
:102B4A000A001E000000840300003C0000008051BF
:102B5A000100201C00008403000005000000200082
:042B6A00270200003E
:00000001FF
